0302716100019801010101  00987126000188TESTE NOME CNPJ E ESPACO VAZIOS ATE O 99 TA QUASE           05021988000000000000025920000000000000112100000000000000000AVENIDA ENDERECO QUALQUER 40 CHAR            37480000CENTRO                          SAO PAULO                 SP00000                  0000000000000000000000000000000000000000000000000000000000000000000000000000000000000028       000000000000000000000000000000000000000000000000000000000000000                                        00000000000000000                                        000000000019281918816800    
0202716100019809090909  07561872252   PESSOA FISICA COM UM NOME BACANA TEM ESPACO VAZIOS ATE O 99 11092001000000000000147350000000000000054800000000000000000RUA SABIA DO TESTE, 22 APT 540               24280110VILA YARA                       SAO PAULO                 SP00000                  0000000000000000000000000000000000000000000000000000000000000000000000000000000000000028       000000000000000000000000000000000000000000000000000000000000000                                        00000000000000000                                        000000000019281918816800    
1111111100019809090909  07561872252   PERSONAGEM N3 PORQUE TO SEM CRIATIVIDADE E MAIS UM BLABLABLA11092001000000000122147350000000000000054800000000000000000RUA SABIA DO TESTE, 22 APT 540               24280110VILA YARA                       SAO PAULO                 SP00000                  0000000000000000000000000000000000000000000000000000000000000000000000000000000000000028       000000000000000000000000000000000000000000000000000000000000000                                        00000000000000000                                        000000000019281918816800    
0302716100019801010101  00987126000188TESTE NOME CNPJ E ESPACO VAZIOS ATE O 99 TA QUASE           05021988000000000000025920000000000000112100000000000000000AVENIDA ENDERECO QUALQUER 40 CHAR            37480000CENTRO                          SAO PAULO                 SP00000                  0000000000000000000000000000000000000000000000000000000000000000000000000000000000000028       000000000000000000000000000000000000000000000000000000000000000                                        00000000000000000                                        000000000019281918816800    
0202716100019809090909  07561872252   PESSOA FISICA COM UM NOME BACANA TEM ESPACO VAZIOS ATE O 99 11092001000000000000147350000000000000054800000000000000000RUA SABIA DO TESTE, 22 APT 540               24280110VILA YARA                       SAO PAULO                 SP00000                  0000000000000000000000000000000000000000000000000000000000000000000000000000000000000028       000000000000000000000000000000000000000000000000000000000000000                                        00000000000000000                                        000000000019281918816800    
1111111100019809090909  07561872252   PERSONAGEM N3 PORQUE TO SEM CRIATIVIDADE E MAIS UM BLABLABLA11092001000000000122147350000000000000054800000000000000000RUA SABIA DO TESTE, 22 APT 540               24280110VILA YARA                       SAO PAULO                 SP00000                  0000000000000000000000000000000000000000000000000000000000000000000000000000000000000028       000000000000000000000000000000000000000000000000000000000000000                                        00000000000000000                                        000000000019281918816800    
0302716100019801010101  00987126000188TESTE NOME CNPJ E ESPACO VAZIOS ATE O 99 TA QUASE           05021988000000000000025920000000000000112100000000000000000AVENIDA ENDERECO QUALQUER 40 CHAR            37480000CENTRO                          SAO PAULO                 SP00000                  0000000000000000000000000000000000000000000000000000000000000000000000000000000000000028       000000000000000000000000000000000000000000000000000000000000000                                        00000000000000000                                        000000000019281918816800    
0202716100019809090909  07561872252   PESSOA FISICA COM UM NOME BACANA TEM ESPACO VAZIOS ATE O 99 11092001000000000000147350000000000000054800000000000000000RUA SABIA DO TESTE, 22 APT 540               24280110VILA YARA                       SAO PAULO                 SP00000                  0000000000000000000000000000000000000000000000000000000000000000000000000000000000000028       000000000000000000000000000000000000000000000000000000000000000                                        00000000000000000                                        000000000019281918816800    
1111111100019809090909  07561872252   PERSONAGEM N3 PORQUE TO SEM CRIATIVIDADE E MAIS UM BLABLABLA11092001000000000122147350000000000000054800000000000000000RUA SABIA DO TESTE, 22 APT 540               24280110VILA YARA                       SAO PAULO                 SP00000                  0000000000000000000000000000000000000000000000000000000000000000000000000000000000000028       000000000000000000000000000000000000000000000000000000000000000                                        00000000000000000                                        000000000019281918816800    
0302716100019801010101  00987126000188TESTE NOME CNPJ E ESPACO VAZIOS ATE O 99 TA QUASE           05021988000000000000025920000000000000112100000000000000000AVENIDA ENDERECO QUALQUER 40 CHAR            37480000CENTRO                          SAO PAULO                 SP00000                  0000000000000000000000000000000000000000000000000000000000000000000000000000000000000028       000000000000000000000000000000000000000000000000000000000000000                                        00000000000000000                                        000000000019281918816800    
0202716100019809090909  07561872252   PESSOA FISICA COM UM NOME BACANA TEM ESPACO VAZIOS ATE O 99 11092001000000000000147350000000000000054800000000000000000RUA SABIA DO TESTE, 22 APT 540               24280110VILA YARA                       SAO PAULO                 SP00000                  0000000000000000000000000000000000000000000000000000000000000000000000000000000000000028       000000000000000000000000000000000000000000000000000000000000000                                        00000000000000000                                        000000000019281918816800    
1111111100019809090909  07561872252   PERSONAGEM N3 PORQUE TO SEM CRIATIVIDADE E MAIS UM BLABLABLA11092001000000000122147350000000000000054800000000000000000RUA SABIA DO TESTE, 22 APT 540               24280110VILA YARA                       SAO PAULO                 SP00000                  0000000000000000000000000000000000000000000000000000000000000000000000000000000000000028       000000000000000000000000000000000000000000000000000000000000000                                        00000000000000000                                        000000000019281918816800    
0302716100019801010101  00987126000188TESTE NOME CNPJ E ESPACO VAZIOS ATE O 99 TA QUASE           05021988000000000000025920000000000000112100000000000000000AVENIDA ENDERECO QUALQUER 40 CHAR            37480000CENTRO                          SAO PAULO                 SP00000                  0000000000000000000000000000000000000000000000000000000000000000000000000000000000000028       000000000000000000000000000000000000000000000000000000000000000                                        00000000000000000                                        000000000019281918816800    
0202716100019809090909  07561872252   PESSOA FISICA COM UM NOME BACANA TEM ESPACO VAZIOS ATE O 99 11092001000000000000147350000000000000054800000000000000000RUA SABIA DO TESTE, 22 APT 540               24280110VILA YARA                       SAO PAULO                 SP00000                  0000000000000000000000000000000000000000000000000000000000000000000000000000000000000028       000000000000000000000000000000000000000000000000000000000000000                                        00000000000000000                                        000000000019281918816800    
1111111100019809090909  07561872252   PERSONAGEM N3 PORQUE TO SEM CRIATIVIDADE E MAIS UM BLABLABLA11092001000000000122147350000000000000054800000000000000000RUA SABIA DO TESTE, 22 APT 540               24280110VILA YARA                       SAO PAULO                 SP00000                  0000000000000000000000000000000000000000000000000000000000000000000000000000000000000028       000000000000000000000000000000000000000000000000000000000000000                                        00000000000000000                                        000000000019281918816800    
0302716100019801010101  00987126000188TESTE NOME CNPJ E ESPACO VAZIOS ATE O 99 TA QUASE           05021988000000000000025920000000000000112100000000000000000AVENIDA ENDERECO QUALQUER 40 CHAR            37480000CENTRO                          SAO PAULO                 SP00000                  0000000000000000000000000000000000000000000000000000000000000000000000000000000000000028       000000000000000000000000000000000000000000000000000000000000000                                        00000000000000000                                        000000000019281918816800    
0202716100019809090909  07561872252   PESSOA FISICA COM UM NOME BACANA TEM ESPACO VAZIOS ATE O 99 11092001000000000000147350000000000000054800000000000000000RUA SABIA DO TESTE, 22 APT 540               24280110VILA YARA                       SAO PAULO                 SP00000                  0000000000000000000000000000000000000000000000000000000000000000000000000000000000000028       000000000000000000000000000000000000000000000000000000000000000                                        00000000000000000                                        000000000019281918816800    
1111111100019809090909  07561872252   PERSONAGEM N3 PORQUE TO SEM CRIATIVIDADE E MAIS UM BLABLABLA11092001000000000122147350000000000000054800000000000000000RUA SABIA DO TESTE, 22 APT 540               24280110VILA YARA                       SAO PAULO                 SP00000                  0000000000000000000000000000000000000000000000000000000000000000000000000000000000000028       000000000000000000000000000000000000000000000000000000000000000                                        00000000000000000                                        000000000019281918816800    
0302716100019801010101  00987126000188TESTE NOME CNPJ E ESPACO VAZIOS ATE O 99 TA QUASE           05021988000000000000025920000000000000112100000000000000000AVENIDA ENDERECO QUALQUER 40 CHAR            37480000CENTRO                          SAO PAULO                 SP00000                  0000000000000000000000000000000000000000000000000000000000000000000000000000000000000028       000000000000000000000000000000000000000000000000000000000000000                                        00000000000000000                                        000000000019281918816800    
0202716100019809090909  07561872252   PESSOA FISICA COM UM NOME BACANA TEM ESPACO VAZIOS ATE O 99 11092001000000000000147350000000000000054800000000000000000RUA SABIA DO TESTE, 22 APT 540               24280110VILA YARA                       SAO PAULO                 SP00000                  0000000000000000000000000000000000000000000000000000000000000000000000000000000000000028       000000000000000000000000000000000000000000000000000000000000000                                        00000000000000000                                        000000000019281918816800    
1111111100019809090909  07561872252   PERSONAGEM N3 PORQUE TO SEM CRIATIVIDADE E MAIS UM BLABLABLA11092001000000000122147350000000000000054800000000000000000RUA SABIA DO TESTE, 22 APT 540               24280110VILA YARA                       SAO PAULO                 SP00000                  0000000000000000000000000000000000000000000000000000000000000000000000000000000000000028       000000000000000000000000000000000000000000000000000000000000000                                        00000000000000000                                        000000000019281918816800    
0302716100019801010101  00987126000188TESTE NOME CNPJ E ESPACO VAZIOS ATE O 99 TA QUASE           05021988000000000000025920000000000000112100000000000000000AVENIDA ENDERECO QUALQUER 40 CHAR            37480000CENTRO                          SAO PAULO                 SP00000                  0000000000000000000000000000000000000000000000000000000000000000000000000000000000000028       000000000000000000000000000000000000000000000000000000000000000                                        00000000000000000                                        000000000019281918816800    
0202716100019809090909  07561872252   PESSOA FISICA COM UM NOME BACANA TEM ESPACO VAZIOS ATE O 99 11092001000000000000147350000000000000054800000000000000000RUA SABIA DO TESTE, 22 APT 540               24280110VILA YARA                       SAO PAULO                 SP00000                  0000000000000000000000000000000000000000000000000000000000000000000000000000000000000028       000000000000000000000000000000000000000000000000000000000000000                                        00000000000000000                                        000000000019281918816800    
1111111100019809090909  07561872252   PERSONAGEM N3 PORQUE TO SEM CRIATIVIDADE E MAIS UM BLABLABLA11092001000000000122147350000000000000054800000000000000000RUA SABIA DO TESTE, 22 APT 540               24280110VILA YARA                       SAO PAULO                 SP00000                  0000000000000000000000000000000000000000000000000000000000000000000000000000000000000028       000000000000000000000000000000000000000000000000000000000000000                                        00000000000000000                                        000000000019281918816800    
0302716100019801010101  00987126000188TESTE NOME CNPJ E ESPACO VAZIOS ATE O 99 TA QUASE           05021988000000000000025920000000000000112100000000000000000AVENIDA ENDERECO QUALQUER 40 CHAR            37480000CENTRO                          SAO PAULO                 SP00000                  0000000000000000000000000000000000000000000000000000000000000000000000000000000000000028       000000000000000000000000000000000000000000000000000000000000000                                        00000000000000000                                        000000000019281918816800    
0202716100019809090909  07561872252   PESSOA FISICA COM UM NOME BACANA TEM ESPACO VAZIOS ATE O 99 11092001000000000000147350000000000000054800000000000000000RUA SABIA DO TESTE, 22 APT 540               24280110VILA YARA                       SAO PAULO                 SP00000                  0000000000000000000000000000000000000000000000000000000000000000000000000000000000000028       000000000000000000000000000000000000000000000000000000000000000                                        00000000000000000                                        000000000019281918816800    
1111111100019809090909  07561872252   PERSONAGEM N3 PORQUE TO SEM CRIATIVIDADE E MAIS UM BLABLABLA11092001000000000122147350000000000000054800000000000000000RUA SABIA DO TESTE, 22 APT 540               24280110VILA YARA                       SAO PAULO                 SP00000                  0000000000000000000000000000000000000000000000000000000000000000000000000000000000000028       000000000000000000000000000000000000000000000000000000000000000                                        00000000000000000                                        000000000019281918816800    
0302716100019801010101  00987126000188TESTE NOME CNPJ E ESPACO VAZIOS ATE O 99 TA QUASE           05021988000000000000025920000000000000112100000000000000000AVENIDA ENDERECO QUALQUER 40 CHAR            37480000CENTRO                          SAO PAULO                 SP00000                  0000000000000000000000000000000000000000000000000000000000000000000000000000000000000028       000000000000000000000000000000000000000000000000000000000000000                                        00000000000000000                                        000000000019281918816800    
0202716100019809090909  07561872252   PESSOA FISICA COM UM NOME BACANA TEM ESPACO VAZIOS ATE O 99 11092001000000000000147350000000000000054800000000000000000RUA SABIA DO TESTE, 22 APT 540               24280110VILA YARA                       SAO PAULO                 SP00000                  0000000000000000000000000000000000000000000000000000000000000000000000000000000000000028       000000000000000000000000000000000000000000000000000000000000000                                        00000000000000000                                        000000000019281918816800    
1111111100019809090909  07561872252   PERSONAGEM N3 PORQUE TO SEM CRIATIVIDADE E MAIS UM BLABLABLA11092001000000000122147350000000000000054800000000000000000RUA SABIA DO TESTE, 22 APT 540               24280110VILA YARA                       SAO PAULO                 SP00000                  0000000000000000000000000000000000000000000000000000000000000000000000000000000000000028       000000000000000000000000000000000000000000000000000000000000000                                        00000000000000000                                        000000000019281918816800    
0302716100019801010101  00987126000188TESTE NOME CNPJ E ESPACO VAZIOS ATE O 99 TA QUASE           05021988000000000000025920000000000000112100000000000000000AVENIDA ENDERECO QUALQUER 40 CHAR            37480000CENTRO                          SAO PAULO                 SP00000                  0000000000000000000000000000000000000000000000000000000000000000000000000000000000000028       000000000000000000000000000000000000000000000000000000000000000                                        00000000000000000                                        000000000019281918816800    
0202716100019809090909  07561872252   PESSOA FISICA COM UM NOME BACANA TEM ESPACO VAZIOS ATE O 99 11092001000000000000147350000000000000054800000000000000000RUA SABIA DO TESTE, 22 APT 540               24280110VILA YARA                       SAO PAULO                 SP00000                  0000000000000000000000000000000000000000000000000000000000000000000000000000000000000028       000000000000000000000000000000000000000000000000000000000000000                                        00000000000000000                                        000000000019281918816800    
1111111100019809090909  07561872252   PERSONAGEM N3 PORQUE TO SEM CRIATIVIDADE E MAIS UM BLABLABLA11092001000000000122147350000000000000054800000000000000000RUA SABIA DO TESTE, 22 APT 540               24280110VILA YARA                       SAO PAULO                 SP00000                  0000000000000000000000000000000000000000000000000000000000000000000000000000000000000028       000000000000000000000000000000000000000000000000000000000000000                                        00000000000000000                                        000000000019281918816800    
0302716100019801010101  00987126000188TESTE NOME CNPJ E ESPACO VAZIOS ATE O 99 TA QUASE           05021988000000000000025920000000000000112100000000000000000AVENIDA ENDERECO QUALQUER 40 CHAR            37480000CENTRO                          SAO PAULO                 SP00000                  0000000000000000000000000000000000000000000000000000000000000000000000000000000000000028       000000000000000000000000000000000000000000000000000000000000000                                        00000000000000000                                        000000000019281918816800    
0202716100019809090909  07561872252   PESSOA FISICA COM UM NOME BACANA TEM ESPACO VAZIOS ATE O 99 11092001000000000000147350000000000000054800000000000000000RUA SABIA DO TESTE, 22 APT 540               24280110VILA YARA                       SAO PAULO                 SP00000                  0000000000000000000000000000000000000000000000000000000000000000000000000000000000000028       000000000000000000000000000000000000000000000000000000000000000                                        00000000000000000                                        000000000019281918816800    
1111111100019809090909  07561872252   PERSONAGEM N3 PORQUE TO SEM CRIATIVIDADE E MAIS UM BLABLABLA11092001000000000122147350000000000000054800000000000000000RUA SABIA DO TESTE, 22 APT 540               24280110VILA YARA                       SAO PAULO                 SP00000                  0000000000000000000000000000000000000000000000000000000000000000000000000000000000000028       000000000000000000000000000000000000000000000000000000000000000                                        00000000000000000                                        000000000019281918816800    
0302716100019801010101  00987126000188TESTE NOME CNPJ E ESPACO VAZIOS ATE O 99 TA QUASE           05021988000000000000025920000000000000112100000000000000000AVENIDA ENDERECO QUALQUER 40 CHAR            37480000CENTRO                          SAO PAULO                 SP00000                  0000000000000000000000000000000000000000000000000000000000000000000000000000000000000028       000000000000000000000000000000000000000000000000000000000000000                                        00000000000000000                                        000000000019281918816800    
0202716100019809090909  07561872252   PESSOA FISICA COM UM NOME BACANA TEM ESPACO VAZIOS ATE O 99 11092001000000000000147350000000000000054800000000000000000RUA SABIA DO TESTE, 22 APT 540               24280110VILA YARA                       SAO PAULO                 SP00000                  0000000000000000000000000000000000000000000000000000000000000000000000000000000000000028       000000000000000000000000000000000000000000000000000000000000000                                        00000000000000000                                        000000000019281918816800    
1111111100019809090909  07561872252   PERSONAGEM N3 PORQUE TO SEM CRIATIVIDADE E MAIS UM BLABLABLA11092001000000000122147350000000000000054800000000000000000RUA SABIA DO TESTE, 22 APT 540               24280110VILA YARA                       SAO PAULO                 SP00000                  0000000000000000000000000000000000000000000000000000000000000000000000000000000000000028       000000000000000000000000000000000000000000000000000000000000000                                        00000000000000000                                        000000000019281918816800    
0302716100019801010101  00987126000188TESTE NOME CNPJ E ESPACO VAZIOS ATE O 99 TA QUASE           05021988000000000000025920000000000000112100000000000000000AVENIDA ENDERECO QUALQUER 40 CHAR            37480000CENTRO                          SAO PAULO                 SP00000                  0000000000000000000000000000000000000000000000000000000000000000000000000000000000000028       000000000000000000000000000000000000000000000000000000000000000                                        00000000000000000                                        000000000019281918816800    
0202716100019809090909  07561872252   PESSOA FISICA COM UM NOME BACANA TEM ESPACO VAZIOS ATE O 99 11092001000000000000147350000000000000054800000000000000000RUA SABIA DO TESTE, 22 APT 540               24280110VILA YARA                       SAO PAULO                 SP00000                  0000000000000000000000000000000000000000000000000000000000000000000000000000000000000028       000000000000000000000000000000000000000000000000000000000000000                                        00000000000000000                                        000000000019281918816800    
1111111100019809090909  07561872252   PERSONAGEM N3 PORQUE TO SEM CRIATIVIDADE E MAIS UM BLABLABLA11092001000000000122147350000000000000054800000000000000000RUA SABIA DO TESTE, 22 APT 540               24280110VILA YARA                       SAO PAULO                 SP00000                  0000000000000000000000000000000000000000000000000000000000000000000000000000000000000028       000000000000000000000000000000000000000000000000000000000000000                                        00000000000000000                                        000000000019281918816800    
0302716100019801010101  00987126000188TESTE NOME CNPJ E ESPACO VAZIOS ATE O 99 TA QUASE           05021988000000000000025920000000000000112100000000000000000AVENIDA ENDERECO QUALQUER 40 CHAR            37480000CENTRO                          SAO PAULO                 SP00000                  0000000000000000000000000000000000000000000000000000000000000000000000000000000000000028       000000000000000000000000000000000000000000000000000000000000000                                        00000000000000000                                        000000000019281918816800    
0202716100019809090909  07561872252   PESSOA FISICA COM UM NOME BACANA TEM ESPACO VAZIOS ATE O 99 11092001000000000000147350000000000000054800000000000000000RUA SABIA DO TESTE, 22 APT 540               24280110VILA YARA                       SAO PAULO                 SP00000                  0000000000000000000000000000000000000000000000000000000000000000000000000000000000000028       000000000000000000000000000000000000000000000000000000000000000                                        00000000000000000                                        000000000019281918816800    
1111111100019809090909  07561872252   PERSONAGEM N3 PORQUE TO SEM CRIATIVIDADE E MAIS UM BLABLABLA11092001000000000122147350000000000000054800000000000000000RUA SABIA DO TESTE, 22 APT 540               24280110VILA YARA                       SAO PAULO                 SP00000                  0000000000000000000000000000000000000000000000000000000000000000000000000000000000000028       000000000000000000000000000000000000000000000000000000000000000                                        00000000000000000                                        000000000019281918816800    
0302716100019801010101  00987126000188TESTE NOME CNPJ E ESPACO VAZIOS ATE O 99 TA QUASE           05021988000000000000025920000000000000112100000000000000000AVENIDA ENDERECO QUALQUER 40 CHAR            37480000CENTRO                          SAO PAULO                 SP00000                  0000000000000000000000000000000000000000000000000000000000000000000000000000000000000028       000000000000000000000000000000000000000000000000000000000000000                                        00000000000000000                                        000000000019281918816800    
0202716100019809090909  07561872252   PESSOA FISICA COM UM NOME BACANA TEM ESPACO VAZIOS ATE O 99 11092001000000000000147350000000000000054800000000000000000RUA SABIA DO TESTE, 22 APT 540               24280110VILA YARA                       SAO PAULO                 SP00000                  0000000000000000000000000000000000000000000000000000000000000000000000000000000000000028       000000000000000000000000000000000000000000000000000000000000000                                        00000000000000000                                        000000000019281918816800    
1111111100019809090909  07561872252   PERSONAGEM N3 PORQUE TO SEM CRIATIVIDADE E MAIS UM BLABLABLA11092001000000000122147350000000000000054800000000000000000RUA SABIA DO TESTE, 22 APT 540               24280110VILA YARA                       SAO PAULO                 SP00000                  0000000000000000000000000000000000000000000000000000000000000000000000000000000000000028       000000000000000000000000000000000000000000000000000000000000000                                        00000000000000000                                        000000000019281918816800    
0302716100019801010101  00987126000188TESTE NOME CNPJ E ESPACO VAZIOS ATE O 99 TA QUASE           05021988000000000000025920000000000000112100000000000000000AVENIDA ENDERECO QUALQUER 40 CHAR            37480000CENTRO                          SAO PAULO                 SP00000                  0000000000000000000000000000000000000000000000000000000000000000000000000000000000000028       000000000000000000000000000000000000000000000000000000000000000                                        00000000000000000                                        000000000019281918816800    
0202716100019809090909  07561872252   PESSOA FISICA COM UM NOME BACANA TEM ESPACO VAZIOS ATE O 99 11092001000000000000147350000000000000054800000000000000000RUA SABIA DO TESTE, 22 APT 540               24280110VILA YARA                       SAO PAULO                 SP00000                  0000000000000000000000000000000000000000000000000000000000000000000000000000000000000028       000000000000000000000000000000000000000000000000000000000000000                                        00000000000000000                                        000000000019281918816800    
1111111100019809090909  07561872252   PERSONAGEM N3 PORQUE TO SEM CRIATIVIDADE E MAIS UM BLABLABLA11092001000000000122147350000000000000054800000000000000000RUA SABIA DO TESTE, 22 APT 540               24280110VILA YARA                       SAO PAULO                 SP00000                  0000000000000000000000000000000000000000000000000000000000000000000000000000000000000028       000000000000000000000000000000000000000000000000000000000000000                                        00000000000000000                                        000000000019281918816800    
0302716100019801010101  00987126000188TESTE NOME CNPJ E ESPACO VAZIOS ATE O 99 TA QUASE           05021988000000000000025920000000000000112100000000000000000AVENIDA ENDERECO QUALQUER 40 CHAR            37480000CENTRO                          SAO PAULO                 SP00000                  0000000000000000000000000000000000000000000000000000000000000000000000000000000000000028       000000000000000000000000000000000000000000000000000000000000000                                        00000000000000000                                        000000000019281918816800    
0202716100019809090909  07561872252   PESSOA FISICA COM UM NOME BACANA TEM ESPACO VAZIOS ATE O 99 11092001000000000000147350000000000000054800000000000000000RUA SABIA DO TESTE, 22 APT 540               24280110VILA YARA                       SAO PAULO                 SP00000                  0000000000000000000000000000000000000000000000000000000000000000000000000000000000000028       000000000000000000000000000000000000000000000000000000000000000                                        00000000000000000                                        000000000019281918816800    
1111111100019809090909  07561872252   PERSONAGEM N3 PORQUE TO SEM CRIATIVIDADE E MAIS UM BLABLABLA11092001000000000122147350000000000000054800000000000000000RUA SABIA DO TESTE, 22 APT 540               24280110VILA YARA                       SAO PAULO                 SP00000                  0000000000000000000000000000000000000000000000000000000000000000000000000000000000000028       000000000000000000000000000000000000000000000000000000000000000                                        00000000000000000                                        000000000019281918816800    
0302716100019801010101  00987126000188TESTE NOME CNPJ E ESPACO VAZIOS ATE O 99 TA QUASE           05021988000000000000025920000000000000112100000000000000000AVENIDA ENDERECO QUALQUER 40 CHAR            37480000CENTRO                          SAO PAULO                 SP00000                  0000000000000000000000000000000000000000000000000000000000000000000000000000000000000028       000000000000000000000000000000000000000000000000000000000000000                                        00000000000000000                                        000000000019281918816800    
0202716100019809090909  07561872252   PESSOA FISICA COM UM NOME BACANA TEM ESPACO VAZIOS ATE O 99 11092001000000000000147350000000000000054800000000000000000RUA SABIA DO TESTE, 22 APT 540               24280110VILA YARA                       SAO PAULO                 SP00000                  0000000000000000000000000000000000000000000000000000000000000000000000000000000000000028       000000000000000000000000000000000000000000000000000000000000000                                        00000000000000000                                        000000000019281918816800    
1111111100019809090909  07561872252   PERSONAGEM N3 PORQUE TO SEM CRIATIVIDADE E MAIS UM BLABLABLA11092001000000000122147350000000000000054800000000000000000RUA SABIA DO TESTE, 22 APT 540               24280110VILA YARA                       SAO PAULO                 SP00000                  0000000000000000000000000000000000000000000000000000000000000000000000000000000000000028       000000000000000000000000000000000000000000000000000000000000000                                        00000000000000000                                        000000000019281918816800    
0302716100019801010101  00987126000188TESTE NOME CNPJ E ESPACO VAZIOS ATE O 99 TA QUASE           05021988000000000000025920000000000000112100000000000000000AVENIDA ENDERECO QUALQUER 40 CHAR            37480000CENTRO                          SAO PAULO                 SP00000                  0000000000000000000000000000000000000000000000000000000000000000000000000000000000000028       000000000000000000000000000000000000000000000000000000000000000                                        00000000000000000                                        000000000019281918816800    
0202716100019809090909  07561872252   PESSOA FISICA COM UM NOME BACANA TEM ESPACO VAZIOS ATE O 99 11092001000000000000147350000000000000054800000000000000000RUA SABIA DO TESTE, 22 APT 540               24280110VILA YARA                       SAO PAULO                 SP00000                  0000000000000000000000000000000000000000000000000000000000000000000000000000000000000028       000000000000000000000000000000000000000000000000000000000000000                                        00000000000000000                                        000000000019281918816800    
1111111100019809090909  07561872252   PERSONAGEM N3 PORQUE TO SEM CRIATIVIDADE E MAIS UM BLABLABLA11092001000000000122147350000000000000054800000000000000000RUA SABIA DO TESTE, 22 APT 540               24280110VILA YARA                       SAO PAULO                 SP00000                  0000000000000000000000000000000000000000000000000000000000000000000000000000000000000028       000000000000000000000000000000000000000000000000000000000000000                                        00000000000000000                                        000000000019281918816800    
0302716100019801010101  00987126000188TESTE NOME CNPJ E ESPACO VAZIOS ATE O 99 TA QUASE           05021988000000000000025920000000000000112100000000000000000AVENIDA ENDERECO QUALQUER 40 CHAR            37480000CENTRO                          SAO PAULO                 SP00000                  0000000000000000000000000000000000000000000000000000000000000000000000000000000000000028       000000000000000000000000000000000000000000000000000000000000000                                        00000000000000000                                        000000000019281918816800    
0202716100019809090909  07561872252   PESSOA FISICA COM UM NOME BACANA TEM ESPACO VAZIOS ATE O 99 11092001000000000000147350000000000000054800000000000000000RUA SABIA DO TESTE, 22 APT 540               24280110VILA YARA                       SAO PAULO                 SP00000                  0000000000000000000000000000000000000000000000000000000000000000000000000000000000000028       000000000000000000000000000000000000000000000000000000000000000                                        00000000000000000                                        000000000019281918816800    
1111111100019809090909  07561872252   PERSONAGEM N3 PORQUE TO SEM CRIATIVIDADE E MAIS UM BLABLABLA11092001000000000122147350000000000000054800000000000000000RUA SABIA DO TESTE, 22 APT 540               24280110VILA YARA                       SAO PAULO                 SP00000                  0000000000000000000000000000000000000000000000000000000000000000000000000000000000000028       000000000000000000000000000000000000000000000000000000000000000                                        00000000000000000                                        000000000019281918816800    
0302716100019801010101  00987126000188TESTE NOME CNPJ E ESPACO VAZIOS ATE O 99 TA QUASE           05021988000000000000025920000000000000112100000000000000000AVENIDA ENDERECO QUALQUER 40 CHAR            37480000CENTRO                          SAO PAULO                 SP00000                  0000000000000000000000000000000000000000000000000000000000000000000000000000000000000028       000000000000000000000000000000000000000000000000000000000000000                                        00000000000000000                                        000000000019281918816800    
0202716100019809090909  07561872252   PESSOA FISICA COM UM NOME BACANA TEM ESPACO VAZIOS ATE O 99 11092001000000000000147350000000000000054800000000000000000RUA SABIA DO TESTE, 22 APT 540               24280110VILA YARA                       SAO PAULO                 SP00000                  0000000000000000000000000000000000000000000000000000000000000000000000000000000000000028       000000000000000000000000000000000000000000000000000000000000000                                        00000000000000000                                        000000000019281918816800    
1111111100019809090909  07561872252   PERSONAGEM N3 PORQUE TO SEM CRIATIVIDADE E MAIS UM BLABLABLA11092001000000000122147350000000000000054800000000000000000RUA SABIA DO TESTE, 22 APT 540               24280110VILA YARA                       SAO PAULO                 SP00000                  0000000000000000000000000000000000000000000000000000000000000000000000000000000000000028       000000000000000000000000000000000000000000000000000000000000000                                        00000000000000000                                        000000000019281918816800    
0302716100019801010101  00987126000188TESTE NOME CNPJ E ESPACO VAZIOS ATE O 99 TA QUASE           05021988000000000000025920000000000000112100000000000000000AVENIDA ENDERECO QUALQUER 40 CHAR            37480000CENTRO                          SAO PAULO                 SP00000                  0000000000000000000000000000000000000000000000000000000000000000000000000000000000000028       000000000000000000000000000000000000000000000000000000000000000                                        00000000000000000                                        000000000019281918816800    
0202716100019809090909  07561872252   PESSOA FISICA COM UM NOME BACANA TEM ESPACO VAZIOS ATE O 99 11092001000000000000147350000000000000054800000000000000000RUA SABIA DO TESTE, 22 APT 540               24280110VILA YARA                       SAO PAULO                 SP00000                  0000000000000000000000000000000000000000000000000000000000000000000000000000000000000028       000000000000000000000000000000000000000000000000000000000000000                                        00000000000000000                                        000000000019281918816800    
1111111100019809090909  07561872252   PERSONAGEM N3 PORQUE TO SEM CRIATIVIDADE E MAIS UM BLABLABLA11092001000000000122147350000000000000054800000000000000000RUA SABIA DO TESTE, 22 APT 540               24280110VILA YARA                       SAO PAULO                 SP00000                  0000000000000000000000000000000000000000000000000000000000000000000000000000000000000028       000000000000000000000000000000000000000000000000000000000000000                                        00000000000000000                                        000000000019281918816800    
0302716100019801010101  00987126000188TESTE NOME CNPJ E ESPACO VAZIOS ATE O 99 TA QUASE           05021988000000000000025920000000000000112100000000000000000AVENIDA ENDERECO QUALQUER 40 CHAR            37480000CENTRO                          SAO PAULO                 SP00000                  0000000000000000000000000000000000000000000000000000000000000000000000000000000000000028       000000000000000000000000000000000000000000000000000000000000000                                        00000000000000000                                        000000000019281918816800    
0202716100019809090909  07561872252   PESSOA FISICA COM UM NOME BACANA TEM ESPACO VAZIOS ATE O 99 11092001000000000000147350000000000000054800000000000000000RUA SABIA DO TESTE, 22 APT 540               24280110VILA YARA                       SAO PAULO                 SP00000                  0000000000000000000000000000000000000000000000000000000000000000000000000000000000000028       000000000000000000000000000000000000000000000000000000000000000                                        00000000000000000                                        000000000019281918816800    
1111111100019809090909  07561872252   PERSONAGEM N3 PORQUE TO SEM CRIATIVIDADE E MAIS UM BLABLABLA11092001000000000122147350000000000000054800000000000000000RUA SABIA DO TESTE, 22 APT 540               24280110VILA YARA                       SAO PAULO                 SP00000                  0000000000000000000000000000000000000000000000000000000000000000000000000000000000000028       000000000000000000000000000000000000000000000000000000000000000                                        00000000000000000                                        000000000019281918816800    
0302716100019801010101  00987126000188TESTE NOME CNPJ E ESPACO VAZIOS ATE O 99 TA QUASE           05021988000000000000025920000000000000112100000000000000000AVENIDA ENDERECO QUALQUER 40 CHAR            37480000CENTRO                          SAO PAULO                 SP00000                  0000000000000000000000000000000000000000000000000000000000000000000000000000000000000028       000000000000000000000000000000000000000000000000000000000000000                                        00000000000000000                                        000000000019281918816800    
0202716100019809090909  07561872252   PESSOA FISICA COM UM NOME BACANA TEM ESPACO VAZIOS ATE O 99 11092001000000000000147350000000000000054800000000000000000RUA SABIA DO TESTE, 22 APT 540               24280110VILA YARA                       SAO PAULO                 SP00000                  0000000000000000000000000000000000000000000000000000000000000000000000000000000000000028       000000000000000000000000000000000000000000000000000000000000000                                        00000000000000000                                        000000000019281918816800    
1111111100019809090909  07561872252   PERSONAGEM N3 PORQUE TO SEM CRIATIVIDADE E MAIS UM BLABLABLA11092001000000000122147350000000000000054800000000000000000RUA SABIA DO TESTE, 22 APT 540               24280110VILA YARA                       SAO PAULO                 SP00000                  0000000000000000000000000000000000000000000000000000000000000000000000000000000000000028       000000000000000000000000000000000000000000000000000000000000000                                        00000000000000000                                        000000000019281918816800    
0302716100019801010101  00987126000188TESTE NOME CNPJ E ESPACO VAZIOS ATE O 99 TA QUASE           05021988000000000000025920000000000000112100000000000000000AVENIDA ENDERECO QUALQUER 40 CHAR            37480000CENTRO                          SAO PAULO                 SP00000                  0000000000000000000000000000000000000000000000000000000000000000000000000000000000000028       000000000000000000000000000000000000000000000000000000000000000                                        00000000000000000                                        000000000019281918816800    
0202716100019809090909  07561872252   PESSOA FISICA COM UM NOME BACANA TEM ESPACO VAZIOS ATE O 99 11092001000000000000147350000000000000054800000000000000000RUA SABIA DO TESTE, 22 APT 540               24280110VILA YARA                       SAO PAULO                 SP00000                  0000000000000000000000000000000000000000000000000000000000000000000000000000000000000028       000000000000000000000000000000000000000000000000000000000000000                                        00000000000000000                                        000000000019281918816800    
1111111100019809090909  07561872252   PERSONAGEM N3 PORQUE TO SEM CRIATIVIDADE E MAIS UM BLABLABLA11092001000000000122147350000000000000054800000000000000000RUA SABIA DO TESTE, 22 APT 540               24280110VILA YARA                       SAO PAULO                 SP00000                  0000000000000000000000000000000000000000000000000000000000000000000000000000000000000028       000000000000000000000000000000000000000000000000000000000000000                                        00000000000000000                                        000000000019281918816800    
0302716100019801010101  00987126000188TESTE NOME CNPJ E ESPACO VAZIOS ATE O 99 TA QUASE           05021988000000000000025920000000000000112100000000000000000AVENIDA ENDERECO QUALQUER 40 CHAR            37480000CENTRO                          SAO PAULO                 SP00000                  0000000000000000000000000000000000000000000000000000000000000000000000000000000000000028       000000000000000000000000000000000000000000000000000000000000000                                        00000000000000000                                        000000000019281918816800    
0202716100019809090909  07561872252   PESSOA FISICA COM UM NOME BACANA TEM ESPACO VAZIOS ATE O 99 11092001000000000000147350000000000000054800000000000000000RUA SABIA DO TESTE, 22 APT 540               24280110VILA YARA                       SAO PAULO                 SP00000                  0000000000000000000000000000000000000000000000000000000000000000000000000000000000000028       000000000000000000000000000000000000000000000000000000000000000                                        00000000000000000                                        000000000019281918816800    
1111111100019809090909  07561872252   PERSONAGEM N3 PORQUE TO SEM CRIATIVIDADE E MAIS UM BLABLABLA11092001000000000122147350000000000000054800000000000000000RUA SABIA DO TESTE, 22 APT 540               24280110VILA YARA                       SAO PAULO                 SP00000                  0000000000000000000000000000000000000000000000000000000000000000000000000000000000000028       000000000000000000000000000000000000000000000000000000000000000                                        00000000000000000                                        000000000019281918816800    
0302716100019801010101  00987126000188TESTE NOME CNPJ E ESPACO VAZIOS ATE O 99 TA QUASE           05021988000000000000025920000000000000112100000000000000000AVENIDA ENDERECO QUALQUER 40 CHAR            37480000CENTRO                          SAO PAULO                 SP00000                  0000000000000000000000000000000000000000000000000000000000000000000000000000000000000028       000000000000000000000000000000000000000000000000000000000000000                                        00000000000000000                                        000000000019281918816800    
0202716100019809090909  07561872252   PESSOA FISICA COM UM NOME BACANA TEM ESPACO VAZIOS ATE O 99 11092001000000000000147350000000000000054800000000000000000RUA SABIA DO TESTE, 22 APT 540               24280110VILA YARA                       SAO PAULO                 SP00000                  0000000000000000000000000000000000000000000000000000000000000000000000000000000000000028       000000000000000000000000000000000000000000000000000000000000000                                        00000000000000000                                        000000000019281918816800    
1111111100019809090909  07561872252   PERSONAGEM N3 PORQUE TO SEM CRIATIVIDADE E MAIS UM BLABLABLA11092001000000000122147350000000000000054800000000000000000RUA SABIA DO TESTE, 22 APT 540               24280110VILA YARA                       SAO PAULO                 SP00000                  0000000000000000000000000000000000000000000000000000000000000000000000000000000000000028       000000000000000000000000000000000000000000000000000000000000000                                        00000000000000000                                        000000000019281918816800    
0302716100019801010101  00987126000188TESTE NOME CNPJ E ESPACO VAZIOS ATE O 99 TA QUASE           05021988000000000000025920000000000000112100000000000000000AVENIDA ENDERECO QUALQUER 40 CHAR            37480000CENTRO                          SAO PAULO                 SP00000                  0000000000000000000000000000000000000000000000000000000000000000000000000000000000000028       000000000000000000000000000000000000000000000000000000000000000                                        00000000000000000                                        000000000019281918816800    
0202716100019809090909  07561872252   PESSOA FISICA COM UM NOME BACANA TEM ESPACO VAZIOS ATE O 99 11092001000000000000147350000000000000054800000000000000000RUA SABIA DO TESTE, 22 APT 540               24280110VILA YARA                       SAO PAULO                 SP00000                  0000000000000000000000000000000000000000000000000000000000000000000000000000000000000028       000000000000000000000000000000000000000000000000000000000000000                                        00000000000000000                                        000000000019281918816800    
1111111100019809090909  07561872252   PERSONAGEM N3 PORQUE TO SEM CRIATIVIDADE E MAIS UM BLABLABLA11092001000000000122147350000000000000054800000000000000000RUA SABIA DO TESTE, 22 APT 540               24280110VILA YARA                       SAO PAULO                 SP00000                  0000000000000000000000000000000000000000000000000000000000000000000000000000000000000028       000000000000000000000000000000000000000000000000000000000000000                                        00000000000000000                                        000000000019281918816800    
0302716100019801010101  00987126000188TESTE NOME CNPJ E ESPACO VAZIOS ATE O 99 TA QUASE           05021988000000000000025920000000000000112100000000000000000AVENIDA ENDERECO QUALQUER 40 CHAR            37480000CENTRO                          SAO PAULO                 SP00000                  0000000000000000000000000000000000000000000000000000000000000000000000000000000000000028       000000000000000000000000000000000000000000000000000000000000000                                        00000000000000000                                        000000000019281918816800    
0202716100019809090909  07561872252   PESSOA FISICA COM UM NOME BACANA TEM ESPACO VAZIOS ATE O 99 11092001000000000000147350000000000000054800000000000000000RUA SABIA DO TESTE, 22 APT 540               24280110VILA YARA                       SAO PAULO                 SP00000                  0000000000000000000000000000000000000000000000000000000000000000000000000000000000000028       000000000000000000000000000000000000000000000000000000000000000                                        00000000000000000                                        000000000019281918816800    
1111111100019809090909  07561872252   PERSONAGEM N3 PORQUE TO SEM CRIATIVIDADE E MAIS UM BLABLABLA11092001000000000122147350000000000000054800000000000000000RUA SABIA DO TESTE, 22 APT 540               24280110VILA YARA                       SAO PAULO                 SP00000                  0000000000000000000000000000000000000000000000000000000000000000000000000000000000000028       000000000000000000000000000000000000000000000000000000000000000                                        00000000000000000                                        000000000019281918816800    
0302716100019801010101  00987126000188TESTE NOME CNPJ E ESPACO VAZIOS ATE O 99 TA QUASE           05021988000000000000025920000000000000112100000000000000000AVENIDA ENDERECO QUALQUER 40 CHAR            37480000CENTRO                          SAO PAULO                 SP00000                  0000000000000000000000000000000000000000000000000000000000000000000000000000000000000028       000000000000000000000000000000000000000000000000000000000000000                                        00000000000000000                                        000000000019281918816800    
0202716100019809090909  07561872252   PESSOA FISICA COM UM NOME BACANA TEM ESPACO VAZIOS ATE O 99 11092001000000000000147350000000000000054800000000000000000RUA SABIA DO TESTE, 22 APT 540               24280110VILA YARA                       SAO PAULO                 SP00000                  0000000000000000000000000000000000000000000000000000000000000000000000000000000000000028       000000000000000000000000000000000000000000000000000000000000000                                        00000000000000000                                        000000000019281918816800    
1111111100019809090909  07561872252   PERSONAGEM N3 PORQUE TO SEM CRIATIVIDADE E MAIS UM BLABLABLA11092001000000000122147350000000000000054800000000000000000RUA SABIA DO TESTE, 22 APT 540               24280110VILA YARA                       SAO PAULO                 SP00000                  0000000000000000000000000000000000000000000000000000000000000000000000000000000000000028       000000000000000000000000000000000000000000000000000000000000000                                        00000000000000000                                        000000000019281918816800    
0302716100019801010101  00987126000188TESTE NOME CNPJ E ESPACO VAZIOS ATE O 99 TA QUASE           05021988000000000000025920000000000000112100000000000000000AVENIDA ENDERECO QUALQUER 40 CHAR            37480000CENTRO                          SAO PAULO                 SP00000                  0000000000000000000000000000000000000000000000000000000000000000000000000000000000000028       000000000000000000000000000000000000000000000000000000000000000                                        00000000000000000                                        000000000019281918816800    
0202716100019809090909  07561872252   PESSOA FISICA COM UM NOME BACANA TEM ESPACO VAZIOS ATE O 99 11092001000000000000147350000000000000054800000000000000000RUA SABIA DO TESTE, 22 APT 540               24280110VILA YARA                       SAO PAULO                 SP00000                  0000000000000000000000000000000000000000000000000000000000000000000000000000000000000028       000000000000000000000000000000000000000000000000000000000000000                                        00000000000000000                                        000000000019281918816800    
1111111100019809090909  07561872252   PERSONAGEM N3 PORQUE TO SEM CRIATIVIDADE E MAIS UM BLABLABLA11092001000000000122147350000000000000054800000000000000000RUA SABIA DO TESTE, 22 APT 540               24280110VILA YARA                       SAO PAULO                 SP00000                  0000000000000000000000000000000000000000000000000000000000000000000000000000000000000028       000000000000000000000000000000000000000000000000000000000000000                                        00000000000000000                                        000000000019281918816800    
0302716100019801010101  00987126000188TESTE NOME CNPJ E ESPACO VAZIOS ATE O 99 TA QUASE           05021988000000000000025920000000000000112100000000000000000AVENIDA ENDERECO QUALQUER 40 CHAR            37480000CENTRO                          SAO PAULO                 SP00000                  0000000000000000000000000000000000000000000000000000000000000000000000000000000000000028       000000000000000000000000000000000000000000000000000000000000000                                        00000000000000000                                        000000000019281918816800    
0202716100019809090909  07561872252   PESSOA FISICA COM UM NOME BACANA TEM ESPACO VAZIOS ATE O 99 11092001000000000000147350000000000000054800000000000000000RUA SABIA DO TESTE, 22 APT 540               24280110VILA YARA                       SAO PAULO                 SP00000                  0000000000000000000000000000000000000000000000000000000000000000000000000000000000000028       000000000000000000000000000000000000000000000000000000000000000                                        00000000000000000                                        000000000019281918816800    
1111111100019809090909  07561872252   PERSONAGEM N3 PORQUE TO SEM CRIATIVIDADE E MAIS UM BLABLABLA11092001000000000122147350000000000000054800000000000000000RUA SABIA DO TESTE, 22 APT 540               24280110VILA YARA                       SAO PAULO                 SP00000                  0000000000000000000000000000000000000000000000000000000000000000000000000000000000000028       000000000000000000000000000000000000000000000000000000000000000                                        00000000000000000                                        000000000019281918816800    
0302716100019801010101  00987126000188TESTE NOME CNPJ E ESPACO VAZIOS ATE O 99 TA QUASE           05021988000000000000025920000000000000112100000000000000000AVENIDA ENDERECO QUALQUER 40 CHAR            37480000CENTRO                          SAO PAULO                 SP00000                  0000000000000000000000000000000000000000000000000000000000000000000000000000000000000028       000000000000000000000000000000000000000000000000000000000000000                                        00000000000000000                                        000000000019281918816800    
0202716100019809090909  07561872252   PESSOA FISICA COM UM NOME BACANA TEM ESPACO VAZIOS ATE O 99 11092001000000000000147350000000000000054800000000000000000RUA SABIA DO TESTE, 22 APT 540               24280110VILA YARA                       SAO PAULO                 SP00000                  0000000000000000000000000000000000000000000000000000000000000000000000000000000000000028       000000000000000000000000000000000000000000000000000000000000000                                        00000000000000000                                        000000000019281918816800    
1111111100019809090909  07561872252   PERSONAGEM N3 PORQUE TO SEM CRIATIVIDADE E MAIS UM BLABLABLA11092001000000000122147350000000000000054800000000000000000RUA SABIA DO TESTE, 22 APT 540               24280110VILA YARA                       SAO PAULO                 SP00000                  0000000000000000000000000000000000000000000000000000000000000000000000000000000000000028       000000000000000000000000000000000000000000000000000000000000000                                        00000000000000000                                        000000000019281918816800    
0302716100019801010101  00987126000188TESTE NOME CNPJ E ESPACO VAZIOS ATE O 99 TA QUASE           05021988000000000000025920000000000000112100000000000000000AVENIDA ENDERECO QUALQUER 40 CHAR            37480000CENTRO                          SAO PAULO                 SP00000                  0000000000000000000000000000000000000000000000000000000000000000000000000000000000000028       000000000000000000000000000000000000000000000000000000000000000                                        00000000000000000                                        000000000019281918816800    
0202716100019809090909  07561872252   PESSOA FISICA COM UM NOME BACANA TEM ESPACO VAZIOS ATE O 99 11092001000000000000147350000000000000054800000000000000000RUA SABIA DO TESTE, 22 APT 540               24280110VILA YARA                       SAO PAULO                 SP00000                  0000000000000000000000000000000000000000000000000000000000000000000000000000000000000028       000000000000000000000000000000000000000000000000000000000000000                                        00000000000000000                                        000000000019281918816800    
1111111100019809090909  07561872252   PERSONAGEM N3 PORQUE TO SEM CRIATIVIDADE E MAIS UM BLABLABLA11092001000000000122147350000000000000054800000000000000000RUA SABIA DO TESTE, 22 APT 540               24280110VILA YARA                       SAO PAULO                 SP00000                  0000000000000000000000000000000000000000000000000000000000000000000000000000000000000028       000000000000000000000000000000000000000000000000000000000000000                                        00000000000000000                                        000000000019281918816800    
0302716100019801010101  00987126000188TESTE NOME CNPJ E ESPACO VAZIOS ATE O 99 TA QUASE           05021988000000000000025920000000000000112100000000000000000AVENIDA ENDERECO QUALQUER 40 CHAR            37480000CENTRO                          SAO PAULO                 SP00000                  0000000000000000000000000000000000000000000000000000000000000000000000000000000000000028       000000000000000000000000000000000000000000000000000000000000000                                        00000000000000000                                        000000000019281918816800    
0202716100019809090909  07561872252   PESSOA FISICA COM UM NOME BACANA TEM ESPACO VAZIOS ATE O 99 11092001000000000000147350000000000000054800000000000000000RUA SABIA DO TESTE, 22 APT 540               24280110VILA YARA                       SAO PAULO                 SP00000                  0000000000000000000000000000000000000000000000000000000000000000000000000000000000000028       000000000000000000000000000000000000000000000000000000000000000                                        00000000000000000                                        000000000019281918816800    
1111111100019809090909  07561872252   PERSONAGEM N3 PORQUE TO SEM CRIATIVIDADE E MAIS UM BLABLABLA11092001000000000122147350000000000000054800000000000000000RUA SABIA DO TESTE, 22 APT 540               24280110VILA YARA                       SAO PAULO                 SP00000                  0000000000000000000000000000000000000000000000000000000000000000000000000000000000000028       000000000000000000000000000000000000000000000000000000000000000                                        00000000000000000                                        000000000019281918816800    
0302716100019801010101  00987126000188TESTE NOME CNPJ E ESPACO VAZIOS ATE O 99 TA QUASE           05021988000000000000025920000000000000112100000000000000000AVENIDA ENDERECO QUALQUER 40 CHAR            37480000CENTRO                          SAO PAULO                 SP00000                  0000000000000000000000000000000000000000000000000000000000000000000000000000000000000028       000000000000000000000000000000000000000000000000000000000000000                                        00000000000000000                                        000000000019281918816800    
0202716100019809090909  07561872252   PESSOA FISICA COM UM NOME BACANA TEM ESPACO VAZIOS ATE O 99 11092001000000000000147350000000000000054800000000000000000RUA SABIA DO TESTE, 22 APT 540               24280110VILA YARA                       SAO PAULO                 SP00000                  0000000000000000000000000000000000000000000000000000000000000000000000000000000000000028       000000000000000000000000000000000000000000000000000000000000000                                        00000000000000000                                        000000000019281918816800    
1111111100019809090909  07561872252   PERSONAGEM N3 PORQUE TO SEM CRIATIVIDADE E MAIS UM BLABLABLA11092001000000000122147350000000000000054800000000000000000RUA SABIA DO TESTE, 22 APT 540               24280110VILA YARA                       SAO PAULO                 SP00000                  0000000000000000000000000000000000000000000000000000000000000000000000000000000000000028       000000000000000000000000000000000000000000000000000000000000000                                        00000000000000000                                        000000000019281918816800    
0302716100019801010101  00987126000188TESTE NOME CNPJ E ESPACO VAZIOS ATE O 99 TA QUASE           05021988000000000000025920000000000000112100000000000000000AVENIDA ENDERECO QUALQUER 40 CHAR            37480000CENTRO                          SAO PAULO                 SP00000                  0000000000000000000000000000000000000000000000000000000000000000000000000000000000000028       000000000000000000000000000000000000000000000000000000000000000                                        00000000000000000                                        000000000019281918816800    
0202716100019809090909  07561872252   PESSOA FISICA COM UM NOME BACANA TEM ESPACO VAZIOS ATE O 99 11092001000000000000147350000000000000054800000000000000000RUA SABIA DO TESTE, 22 APT 540               24280110VILA YARA                       SAO PAULO                 SP00000                  0000000000000000000000000000000000000000000000000000000000000000000000000000000000000028       000000000000000000000000000000000000000000000000000000000000000                                        00000000000000000                                        000000000019281918816800    
1111111100019809090909  07561872252   PERSONAGEM N3 PORQUE TO SEM CRIATIVIDADE E MAIS UM BLABLABLA11092001000000000122147350000000000000054800000000000000000RUA SABIA DO TESTE, 22 APT 540               24280110VILA YARA                       SAO PAULO                 SP00000                  0000000000000000000000000000000000000000000000000000000000000000000000000000000000000028       000000000000000000000000000000000000000000000000000000000000000                                        00000000000000000                                        000000000019281918816800    
0302716100019801010101  00987126000188TESTE NOME CNPJ E ESPACO VAZIOS ATE O 99 TA QUASE           05021988000000000000025920000000000000112100000000000000000AVENIDA ENDERECO QUALQUER 40 CHAR            37480000CENTRO                          SAO PAULO                 SP00000                  0000000000000000000000000000000000000000000000000000000000000000000000000000000000000028       000000000000000000000000000000000000000000000000000000000000000                                        00000000000000000                                        000000000019281918816800    
0202716100019809090909  07561872252   PESSOA FISICA COM UM NOME BACANA TEM ESPACO VAZIOS ATE O 99 11092001000000000000147350000000000000054800000000000000000RUA SABIA DO TESTE, 22 APT 540               24280110VILA YARA                       SAO PAULO                 SP00000                  0000000000000000000000000000000000000000000000000000000000000000000000000000000000000028       000000000000000000000000000000000000000000000000000000000000000                                        00000000000000000                                        000000000019281918816800    
1111111100019809090909  07561872252   PERSONAGEM N3 PORQUE TO SEM CRIATIVIDADE E MAIS UM BLABLABLA11092001000000000122147350000000000000054800000000000000000RUA SABIA DO TESTE, 22 APT 540               24280110VILA YARA                       SAO PAULO                 SP00000                  0000000000000000000000000000000000000000000000000000000000000000000000000000000000000028       000000000000000000000000000000000000000000000000000000000000000                                        00000000000000000                                        000000000019281918816800    
0302716100019801010101  00987126000188TESTE NOME CNPJ E ESPACO VAZIOS ATE O 99 TA QUASE           05021988000000000000025920000000000000112100000000000000000AVENIDA ENDERECO QUALQUER 40 CHAR            37480000CENTRO                          SAO PAULO                 SP00000                  0000000000000000000000000000000000000000000000000000000000000000000000000000000000000028       000000000000000000000000000000000000000000000000000000000000000                                        00000000000000000                                        000000000019281918816800    
0202716100019809090909  07561872252   PESSOA FISICA COM UM NOME BACANA TEM ESPACO VAZIOS ATE O 99 11092001000000000000147350000000000000054800000000000000000RUA SABIA DO TESTE, 22 APT 540               24280110VILA YARA                       SAO PAULO                 SP00000                  0000000000000000000000000000000000000000000000000000000000000000000000000000000000000028       000000000000000000000000000000000000000000000000000000000000000                                        00000000000000000                                        000000000019281918816800    
1111111100019809090909  07561872252   PERSONAGEM N3 PORQUE TO SEM CRIATIVIDADE E MAIS UM BLABLABLA11092001000000000122147350000000000000054800000000000000000RUA SABIA DO TESTE, 22 APT 540               24280110VILA YARA                       SAO PAULO                 SP00000                  0000000000000000000000000000000000000000000000000000000000000000000000000000000000000028       000000000000000000000000000000000000000000000000000000000000000                                        00000000000000000                                        000000000019281918816800    
0302716100019801010101  00987126000188TESTE NOME CNPJ E ESPACO VAZIOS ATE O 99 TA QUASE           05021988000000000000025920000000000000112100000000000000000AVENIDA ENDERECO QUALQUER 40 CHAR            37480000CENTRO                          SAO PAULO                 SP00000                  0000000000000000000000000000000000000000000000000000000000000000000000000000000000000028       000000000000000000000000000000000000000000000000000000000000000                                        00000000000000000                                        000000000019281918816800    
0202716100019809090909  07561872252   PESSOA FISICA COM UM NOME BACANA TEM ESPACO VAZIOS ATE O 99 11092001000000000000147350000000000000054800000000000000000RUA SABIA DO TESTE, 22 APT 540               24280110VILA YARA                       SAO PAULO                 SP00000                  0000000000000000000000000000000000000000000000000000000000000000000000000000000000000028       000000000000000000000000000000000000000000000000000000000000000                                        00000000000000000                                        000000000019281918816800    
1111111100019809090909  07561872252   PERSONAGEM N3 PORQUE TO SEM CRIATIVIDADE E MAIS UM BLABLABLA11092001000000000122147350000000000000054800000000000000000RUA SABIA DO TESTE, 22 APT 540               24280110VILA YARA                       SAO PAULO                 SP00000                  0000000000000000000000000000000000000000000000000000000000000000000000000000000000000028       000000000000000000000000000000000000000000000000000000000000000                                        00000000000000000                                        000000000019281918816800    
0302716100019801010101  00987126000188TESTE NOME CNPJ E ESPACO VAZIOS ATE O 99 TA QUASE           05021988000000000000025920000000000000112100000000000000000AVENIDA ENDERECO QUALQUER 40 CHAR            37480000CENTRO                          SAO PAULO                 SP00000                  0000000000000000000000000000000000000000000000000000000000000000000000000000000000000028       000000000000000000000000000000000000000000000000000000000000000                                        00000000000000000                                        000000000019281918816800    
0202716100019809090909  07561872252   PESSOA FISICA COM UM NOME BACANA TEM ESPACO VAZIOS ATE O 99 11092001000000000000147350000000000000054800000000000000000RUA SABIA DO TESTE, 22 APT 540               24280110VILA YARA                       SAO PAULO                 SP00000                  0000000000000000000000000000000000000000000000000000000000000000000000000000000000000028       000000000000000000000000000000000000000000000000000000000000000                                        00000000000000000                                        000000000019281918816800    
1111111100019809090909  07561872252   PERSONAGEM N3 PORQUE TO SEM CRIATIVIDADE E MAIS UM BLABLABLA11092001000000000122147350000000000000054800000000000000000RUA SABIA DO TESTE, 22 APT 540               24280110VILA YARA                       SAO PAULO                 SP00000                  0000000000000000000000000000000000000000000000000000000000000000000000000000000000000028       000000000000000000000000000000000000000000000000000000000000000                                        00000000000000000                                        000000000019281918816800    
0302716100019801010101  00987126000188TESTE NOME CNPJ E ESPACO VAZIOS ATE O 99 TA QUASE           05021988000000000000025920000000000000112100000000000000000AVENIDA ENDERECO QUALQUER 40 CHAR            37480000CENTRO                          SAO PAULO                 SP00000                  0000000000000000000000000000000000000000000000000000000000000000000000000000000000000028       000000000000000000000000000000000000000000000000000000000000000                                        00000000000000000                                        000000000019281918816800    
0202716100019809090909  07561872252   PESSOA FISICA COM UM NOME BACANA TEM ESPACO VAZIOS ATE O 99 11092001000000000000147350000000000000054800000000000000000RUA SABIA DO TESTE, 22 APT 540               24280110VILA YARA                       SAO PAULO                 SP00000                  0000000000000000000000000000000000000000000000000000000000000000000000000000000000000028       000000000000000000000000000000000000000000000000000000000000000                                        00000000000000000                                        000000000019281918816800    
1111111100019809090909  07561872252   PERSONAGEM N3 PORQUE TO SEM CRIATIVIDADE E MAIS UM BLABLABLA11092001000000000122147350000000000000054800000000000000000RUA SABIA DO TESTE, 22 APT 540               24280110VILA YARA                       SAO PAULO                 SP00000                  0000000000000000000000000000000000000000000000000000000000000000000000000000000000000028       000000000000000000000000000000000000000000000000000000000000000                                        00000000000000000                                        000000000019281918816800    
0302716100019801010101  00987126000188TESTE NOME CNPJ E ESPACO VAZIOS ATE O 99 TA QUASE           05021988000000000000025920000000000000112100000000000000000AVENIDA ENDERECO QUALQUER 40 CHAR            37480000CENTRO                          SAO PAULO                 SP00000                  0000000000000000000000000000000000000000000000000000000000000000000000000000000000000028       000000000000000000000000000000000000000000000000000000000000000                                        00000000000000000                                        000000000019281918816800    
0202716100019809090909  07561872252   PESSOA FISICA COM UM NOME BACANA TEM ESPACO VAZIOS ATE O 99 11092001000000000000147350000000000000054800000000000000000RUA SABIA DO TESTE, 22 APT 540               24280110VILA YARA                       SAO PAULO                 SP00000                  0000000000000000000000000000000000000000000000000000000000000000000000000000000000000028       000000000000000000000000000000000000000000000000000000000000000                                        00000000000000000                                        000000000019281918816800    
1111111100019809090909  07561872252   PERSONAGEM N3 PORQUE TO SEM CRIATIVIDADE E MAIS UM BLABLABLA11092001000000000122147350000000000000054800000000000000000RUA SABIA DO TESTE, 22 APT 540               24280110VILA YARA                       SAO PAULO                 SP00000                  0000000000000000000000000000000000000000000000000000000000000000000000000000000000000028       000000000000000000000000000000000000000000000000000000000000000                                        00000000000000000                                        000000000019281918816800    
0302716100019801010101  00987126000188TESTE NOME CNPJ E ESPACO VAZIOS ATE O 99 TA QUASE           05021988000000000000025920000000000000112100000000000000000AVENIDA ENDERECO QUALQUER 40 CHAR            37480000CENTRO                          SAO PAULO                 SP00000                  0000000000000000000000000000000000000000000000000000000000000000000000000000000000000028       000000000000000000000000000000000000000000000000000000000000000                                        00000000000000000                                        000000000019281918816800    
0202716100019809090909  07561872252   PESSOA FISICA COM UM NOME BACANA TEM ESPACO VAZIOS ATE O 99 11092001000000000000147350000000000000054800000000000000000RUA SABIA DO TESTE, 22 APT 540               24280110VILA YARA                       SAO PAULO                 SP00000                  0000000000000000000000000000000000000000000000000000000000000000000000000000000000000028       000000000000000000000000000000000000000000000000000000000000000                                        00000000000000000                                        000000000019281918816800    
1111111100019809090909  07561872252   PERSONAGEM N3 PORQUE TO SEM CRIATIVIDADE E MAIS UM BLABLABLA11092001000000000122147350000000000000054800000000000000000RUA SABIA DO TESTE, 22 APT 540               24280110VILA YARA                       SAO PAULO                 SP00000                  0000000000000000000000000000000000000000000000000000000000000000000000000000000000000028       000000000000000000000000000000000000000000000000000000000000000                                        00000000000000000                                        000000000019281918816800    
0302716100019801010101  00987126000188TESTE NOME CNPJ E ESPACO VAZIOS ATE O 99 TA QUASE           05021988000000000000025920000000000000112100000000000000000AVENIDA ENDERECO QUALQUER 40 CHAR            37480000CENTRO                          SAO PAULO                 SP00000                  0000000000000000000000000000000000000000000000000000000000000000000000000000000000000028       000000000000000000000000000000000000000000000000000000000000000                                        00000000000000000                                        000000000019281918816800    
0202716100019809090909  07561872252   PESSOA FISICA COM UM NOME BACANA TEM ESPACO VAZIOS ATE O 99 11092001000000000000147350000000000000054800000000000000000RUA SABIA DO TESTE, 22 APT 540               24280110VILA YARA                       SAO PAULO                 SP00000                  0000000000000000000000000000000000000000000000000000000000000000000000000000000000000028       000000000000000000000000000000000000000000000000000000000000000                                        00000000000000000                                        000000000019281918816800    
1111111100019809090909  07561872252   PERSONAGEM N3 PORQUE TO SEM CRIATIVIDADE E MAIS UM BLABLABLA11092001000000000122147350000000000000054800000000000000000RUA SABIA DO TESTE, 22 APT 540               24280110VILA YARA                       SAO PAULO                 SP00000                  0000000000000000000000000000000000000000000000000000000000000000000000000000000000000028       000000000000000000000000000000000000000000000000000000000000000                                        00000000000000000                                        000000000019281918816800    
0302716100019801010101  00987126000188TESTE NOME CNPJ E ESPACO VAZIOS ATE O 99 TA QUASE           05021988000000000000025920000000000000112100000000000000000AVENIDA ENDERECO QUALQUER 40 CHAR            37480000CENTRO                          SAO PAULO                 SP00000                  0000000000000000000000000000000000000000000000000000000000000000000000000000000000000028       000000000000000000000000000000000000000000000000000000000000000                                        00000000000000000                                        000000000019281918816800    
0202716100019809090909  07561872252   PESSOA FISICA COM UM NOME BACANA TEM ESPACO VAZIOS ATE O 99 11092001000000000000147350000000000000054800000000000000000RUA SABIA DO TESTE, 22 APT 540               24280110VILA YARA                       SAO PAULO                 SP00000                  0000000000000000000000000000000000000000000000000000000000000000000000000000000000000028       000000000000000000000000000000000000000000000000000000000000000                                        00000000000000000                                        000000000019281918816800    
1111111100019809090909  07561872252   PERSONAGEM N3 PORQUE TO SEM CRIATIVIDADE E MAIS UM BLABLABLA11092001000000000122147350000000000000054800000000000000000RUA SABIA DO TESTE, 22 APT 540               24280110VILA YARA                       SAO PAULO                 SP00000                  0000000000000000000000000000000000000000000000000000000000000000000000000000000000000028       000000000000000000000000000000000000000000000000000000000000000                                        00000000000000000                                        000000000019281918816800    
0302716100019801010101  00987126000188TESTE NOME CNPJ E ESPACO VAZIOS ATE O 99 TA QUASE           05021988000000000000025920000000000000112100000000000000000AVENIDA ENDERECO QUALQUER 40 CHAR            37480000CENTRO                          SAO PAULO                 SP00000                  0000000000000000000000000000000000000000000000000000000000000000000000000000000000000028       000000000000000000000000000000000000000000000000000000000000000                                        00000000000000000                                        000000000019281918816800    
0202716100019809090909  07561872252   PESSOA FISICA COM UM NOME BACANA TEM ESPACO VAZIOS ATE O 99 11092001000000000000147350000000000000054800000000000000000RUA SABIA DO TESTE, 22 APT 540               24280110VILA YARA                       SAO PAULO                 SP00000                  0000000000000000000000000000000000000000000000000000000000000000000000000000000000000028       000000000000000000000000000000000000000000000000000000000000000                                        00000000000000000                                        000000000019281918816800    
1111111100019809090909  07561872252   PERSONAGEM N3 PORQUE TO SEM CRIATIVIDADE E MAIS UM BLABLABLA11092001000000000122147350000000000000054800000000000000000RUA SABIA DO TESTE, 22 APT 540               24280110VILA YARA                       SAO PAULO                 SP00000                  0000000000000000000000000000000000000000000000000000000000000000000000000000000000000028       000000000000000000000000000000000000000000000000000000000000000                                        00000000000000000                                        000000000019281918816800    
0302716100019801010101  00987126000188TESTE NOME CNPJ E ESPACO VAZIOS ATE O 99 TA QUASE           05021988000000000000025920000000000000112100000000000000000AVENIDA ENDERECO QUALQUER 40 CHAR            37480000CENTRO                          SAO PAULO                 SP00000                  0000000000000000000000000000000000000000000000000000000000000000000000000000000000000028       000000000000000000000000000000000000000000000000000000000000000                                        00000000000000000                                        000000000019281918816800    
0202716100019809090909  07561872252   PESSOA FISICA COM UM NOME BACANA TEM ESPACO VAZIOS ATE O 99 11092001000000000000147350000000000000054800000000000000000RUA SABIA DO TESTE, 22 APT 540               24280110VILA YARA                       SAO PAULO                 SP00000                  0000000000000000000000000000000000000000000000000000000000000000000000000000000000000028       000000000000000000000000000000000000000000000000000000000000000                                        00000000000000000                                        000000000019281918816800    
1111111100019809090909  07561872252   PERSONAGEM N3 PORQUE TO SEM CRIATIVIDADE E MAIS UM BLABLABLA11092001000000000122147350000000000000054800000000000000000RUA SABIA DO TESTE, 22 APT 540               24280110VILA YARA                       SAO PAULO                 SP00000                  0000000000000000000000000000000000000000000000000000000000000000000000000000000000000028       000000000000000000000000000000000000000000000000000000000000000                                        00000000000000000                                        000000000019281918816800    
0302716100019801010101  00987126000188TESTE NOME CNPJ E ESPACO VAZIOS ATE O 99 TA QUASE           05021988000000000000025920000000000000112100000000000000000AVENIDA ENDERECO QUALQUER 40 CHAR            37480000CENTRO                          SAO PAULO                 SP00000                  0000000000000000000000000000000000000000000000000000000000000000000000000000000000000028       000000000000000000000000000000000000000000000000000000000000000                                        00000000000000000                                        000000000019281918816800    
0202716100019809090909  07561872252   PESSOA FISICA COM UM NOME BACANA TEM ESPACO VAZIOS ATE O 99 11092001000000000000147350000000000000054800000000000000000RUA SABIA DO TESTE, 22 APT 540               24280110VILA YARA                       SAO PAULO                 SP00000                  0000000000000000000000000000000000000000000000000000000000000000000000000000000000000028       000000000000000000000000000000000000000000000000000000000000000                                        00000000000000000                                        000000000019281918816800    
1111111100019809090909  07561872252   PERSONAGEM N3 PORQUE TO SEM CRIATIVIDADE E MAIS UM BLABLABLA11092001000000000122147350000000000000054800000000000000000RUA SABIA DO TESTE, 22 APT 540               24280110VILA YARA                       SAO PAULO                 SP00000                  0000000000000000000000000000000000000000000000000000000000000000000000000000000000000028       000000000000000000000000000000000000000000000000000000000000000                                        00000000000000000                                        000000000019281918816800    
0302716100019801010101  00987126000188TESTE NOME CNPJ E ESPACO VAZIOS ATE O 99 TA QUASE           05021988000000000000025920000000000000112100000000000000000AVENIDA ENDERECO QUALQUER 40 CHAR            37480000CENTRO                          SAO PAULO                 SP00000                  0000000000000000000000000000000000000000000000000000000000000000000000000000000000000028       000000000000000000000000000000000000000000000000000000000000000                                        00000000000000000                                        000000000019281918816800    
0202716100019809090909  07561872252   PESSOA FISICA COM UM NOME BACANA TEM ESPACO VAZIOS ATE O 99 11092001000000000000147350000000000000054800000000000000000RUA SABIA DO TESTE, 22 APT 540               24280110VILA YARA                       SAO PAULO                 SP00000                  0000000000000000000000000000000000000000000000000000000000000000000000000000000000000028       000000000000000000000000000000000000000000000000000000000000000                                        00000000000000000                                        000000000019281918816800    
1111111100019809090909  07561872252   PERSONAGEM N3 PORQUE TO SEM CRIATIVIDADE E MAIS UM BLABLABLA11092001000000000122147350000000000000054800000000000000000RUA SABIA DO TESTE, 22 APT 540               24280110VILA YARA                       SAO PAULO                 SP00000                  0000000000000000000000000000000000000000000000000000000000000000000000000000000000000028       000000000000000000000000000000000000000000000000000000000000000                                        00000000000000000                                        000000000019281918816800    
0302716100019801010101  00987126000188TESTE NOME CNPJ E ESPACO VAZIOS ATE O 99 TA QUASE           05021988000000000000025920000000000000112100000000000000000AVENIDA ENDERECO QUALQUER 40 CHAR            37480000CENTRO                          SAO PAULO                 SP00000                  0000000000000000000000000000000000000000000000000000000000000000000000000000000000000028       000000000000000000000000000000000000000000000000000000000000000                                        00000000000000000                                        000000000019281918816800    
0202716100019809090909  07561872252   PESSOA FISICA COM UM NOME BACANA TEM ESPACO VAZIOS ATE O 99 11092001000000000000147350000000000000054800000000000000000RUA SABIA DO TESTE, 22 APT 540               24280110VILA YARA                       SAO PAULO                 SP00000                  0000000000000000000000000000000000000000000000000000000000000000000000000000000000000028       000000000000000000000000000000000000000000000000000000000000000                                        00000000000000000                                        000000000019281918816800    
1111111100019809090909  07561872252   PERSONAGEM N3 PORQUE TO SEM CRIATIVIDADE E MAIS UM BLABLABLA11092001000000000122147350000000000000054800000000000000000RUA SABIA DO TESTE, 22 APT 540               24280110VILA YARA                       SAO PAULO                 SP00000                  0000000000000000000000000000000000000000000000000000000000000000000000000000000000000028       000000000000000000000000000000000000000000000000000000000000000                                        00000000000000000                                        000000000019281918816800    
0302716100019801010101  00987126000188TESTE NOME CNPJ E ESPACO VAZIOS ATE O 99 TA QUASE           05021988000000000000025920000000000000112100000000000000000AVENIDA ENDERECO QUALQUER 40 CHAR            37480000CENTRO                          SAO PAULO                 SP00000                  0000000000000000000000000000000000000000000000000000000000000000000000000000000000000028       000000000000000000000000000000000000000000000000000000000000000                                        00000000000000000                                        000000000019281918816800    
0202716100019809090909  07561872252   PESSOA FISICA COM UM NOME BACANA TEM ESPACO VAZIOS ATE O 99 11092001000000000000147350000000000000054800000000000000000RUA SABIA DO TESTE, 22 APT 540               24280110VILA YARA                       SAO PAULO                 SP00000                  0000000000000000000000000000000000000000000000000000000000000000000000000000000000000028       000000000000000000000000000000000000000000000000000000000000000                                        00000000000000000                                        000000000019281918816800    
1111111100019809090909  07561872252   PERSONAGEM N3 PORQUE TO SEM CRIATIVIDADE E MAIS UM BLABLABLA11092001000000000122147350000000000000054800000000000000000RUA SABIA DO TESTE, 22 APT 540               24280110VILA YARA                       SAO PAULO                 SP00000                  0000000000000000000000000000000000000000000000000000000000000000000000000000000000000028       000000000000000000000000000000000000000000000000000000000000000                                        00000000000000000                                        000000000019281918816800    
0302716100019801010101  00987126000188TESTE NOME CNPJ E ESPACO VAZIOS ATE O 99 TA QUASE           05021988000000000000025920000000000000112100000000000000000AVENIDA ENDERECO QUALQUER 40 CHAR            37480000CENTRO                          SAO PAULO                 SP00000                  0000000000000000000000000000000000000000000000000000000000000000000000000000000000000028       000000000000000000000000000000000000000000000000000000000000000                                        00000000000000000                                        000000000019281918816800    
0202716100019809090909  07561872252   PESSOA FISICA COM UM NOME BACANA TEM ESPACO VAZIOS ATE O 99 11092001000000000000147350000000000000054800000000000000000RUA SABIA DO TESTE, 22 APT 540               24280110VILA YARA                       SAO PAULO                 SP00000                  0000000000000000000000000000000000000000000000000000000000000000000000000000000000000028       000000000000000000000000000000000000000000000000000000000000000                                        00000000000000000                                        000000000019281918816800    
1111111100019809090909  07561872252   PERSONAGEM N3 PORQUE TO SEM CRIATIVIDADE E MAIS UM BLABLABLA11092001000000000122147350000000000000054800000000000000000RUA SABIA DO TESTE, 22 APT 540               24280110VILA YARA                       SAO PAULO                 SP00000                  0000000000000000000000000000000000000000000000000000000000000000000000000000000000000028       000000000000000000000000000000000000000000000000000000000000000                                        00000000000000000                                        000000000019281918816800    
0302716100019801010101  00987126000188TESTE NOME CNPJ E ESPACO VAZIOS ATE O 99 TA QUASE           05021988000000000000025920000000000000112100000000000000000AVENIDA ENDERECO QUALQUER 40 CHAR            37480000CENTRO                          SAO PAULO                 SP00000                  0000000000000000000000000000000000000000000000000000000000000000000000000000000000000028       000000000000000000000000000000000000000000000000000000000000000                                        00000000000000000                                        000000000019281918816800    
0202716100019809090909  07561872252   PESSOA FISICA COM UM NOME BACANA TEM ESPACO VAZIOS ATE O 99 11092001000000000000147350000000000000054800000000000000000RUA SABIA DO TESTE, 22 APT 540               24280110VILA YARA                       SAO PAULO                 SP00000                  0000000000000000000000000000000000000000000000000000000000000000000000000000000000000028       000000000000000000000000000000000000000000000000000000000000000                                        00000000000000000                                        000000000019281918816800    
1111111100019809090909  07561872252   PERSONAGEM N3 PORQUE TO SEM CRIATIVIDADE E MAIS UM BLABLABLA11092001000000000122147350000000000000054800000000000000000RUA SABIA DO TESTE, 22 APT 540               24280110VILA YARA                       SAO PAULO                 SP00000                  0000000000000000000000000000000000000000000000000000000000000000000000000000000000000028       000000000000000000000000000000000000000000000000000000000000000                                        00000000000000000                                        000000000019281918816800    
0302716100019801010101  00987126000188TESTE NOME CNPJ E ESPACO VAZIOS ATE O 99 TA QUASE           05021988000000000000025920000000000000112100000000000000000AVENIDA ENDERECO QUALQUER 40 CHAR            37480000CENTRO                          SAO PAULO                 SP00000                  0000000000000000000000000000000000000000000000000000000000000000000000000000000000000028       000000000000000000000000000000000000000000000000000000000000000                                        00000000000000000                                        000000000019281918816800    
0202716100019809090909  07561872252   PESSOA FISICA COM UM NOME BACANA TEM ESPACO VAZIOS ATE O 99 11092001000000000000147350000000000000054800000000000000000RUA SABIA DO TESTE, 22 APT 540               24280110VILA YARA                       SAO PAULO                 SP00000                  0000000000000000000000000000000000000000000000000000000000000000000000000000000000000028       000000000000000000000000000000000000000000000000000000000000000                                        00000000000000000                                        000000000019281918816800    
1111111100019809090909  07561872252   PERSONAGEM N3 PORQUE TO SEM CRIATIVIDADE E MAIS UM BLABLABLA11092001000000000122147350000000000000054800000000000000000RUA SABIA DO TESTE, 22 APT 540               24280110VILA YARA                       SAO PAULO                 SP00000                  0000000000000000000000000000000000000000000000000000000000000000000000000000000000000028       000000000000000000000000000000000000000000000000000000000000000                                        00000000000000000                                        000000000019281918816800    
0302716100019801010101  00987126000188TESTE NOME CNPJ E ESPACO VAZIOS ATE O 99 TA QUASE           05021988000000000000025920000000000000112100000000000000000AVENIDA ENDERECO QUALQUER 40 CHAR            37480000CENTRO                          SAO PAULO                 SP00000                  0000000000000000000000000000000000000000000000000000000000000000000000000000000000000028       000000000000000000000000000000000000000000000000000000000000000                                        00000000000000000                                        000000000019281918816800    
0202716100019809090909  07561872252   PESSOA FISICA COM UM NOME BACANA TEM ESPACO VAZIOS ATE O 99 11092001000000000000147350000000000000054800000000000000000RUA SABIA DO TESTE, 22 APT 540               24280110VILA YARA                       SAO PAULO                 SP00000                  0000000000000000000000000000000000000000000000000000000000000000000000000000000000000028       000000000000000000000000000000000000000000000000000000000000000                                        00000000000000000                                        000000000019281918816800    
1111111100019809090909  07561872252   PERSONAGEM N3 PORQUE TO SEM CRIATIVIDADE E MAIS UM BLABLABLA11092001000000000122147350000000000000054800000000000000000RUA SABIA DO TESTE, 22 APT 540               24280110VILA YARA                       SAO PAULO                 SP00000                  0000000000000000000000000000000000000000000000000000000000000000000000000000000000000028       000000000000000000000000000000000000000000000000000000000000000                                        00000000000000000                                        000000000019281918816800    
0302716100019801010101  00987126000188TESTE NOME CNPJ E ESPACO VAZIOS ATE O 99 TA QUASE           05021988000000000000025920000000000000112100000000000000000AVENIDA ENDERECO QUALQUER 40 CHAR            37480000CENTRO                          SAO PAULO                 SP00000                  0000000000000000000000000000000000000000000000000000000000000000000000000000000000000028       000000000000000000000000000000000000000000000000000000000000000                                        00000000000000000                                        000000000019281918816800    
0202716100019809090909  07561872252   PESSOA FISICA COM UM NOME BACANA TEM ESPACO VAZIOS ATE O 99 11092001000000000000147350000000000000054800000000000000000RUA SABIA DO TESTE, 22 APT 540               24280110VILA YARA                       SAO PAULO                 SP00000                  0000000000000000000000000000000000000000000000000000000000000000000000000000000000000028       000000000000000000000000000000000000000000000000000000000000000                                        00000000000000000                                        000000000019281918816800    
